:02000000FE2DD3
:06000600000000000800EC
:0E000C00213083120313FD00FD0B0A280800AB
:10001A000F3083120313FC004730FD00FD0B132839
:0A002A00FC0B132800000000080082
:1000340083120317AB1B20288612212886162B1B3C
:100044002528061226280616AB1A2A2886112B28DC
:1000540086152B1A2F2806113028061503136F183E
:100064003528061436280610861403208610031734
:10007400AB193E2886123F2886162B1943280612F0
:1000840044280616AB1848288611492886152B18CB
:100094004D2806114E28061503136F18532806140D
:1000A400542806108614032086106F1C5B280D202C
:0600B4005C280620080094
:0E00BA00F201F101F001F801F301003008003D
:1000C800FB14FB1F6E28FF30F300F200F100F00074
:0800D800FA0DF20CFF300800E4
:1000E000831203136F1003172A08AB001A206F1432
:0200F000080006
:1000F2007B15FB1F83280130F300F201F101F001AF
:08010200FA0DF20CFF300800B9
:08010A00FA1FF2130030080097
:0E0112008316031367088A006608820008003F
:100120000E3083120313FD00FD0B9428000008001D
:10013000AA28803083120317A600BD28C030A6006D
:10014000BD289430A600BD28D430A600BD2880303C
:10015000A600BD28831203172608013A031999281F
:100160002608023A03199E282608033A0319A128F3
:100170002608043A0319A428A7282703F000260814
:10018000F0077008A6007008AB001A206F10031764
:10019000A90129082807840000080319D82829087C
:1001A000280784000008AA0070200317A90AC9289C
:0601B00003136F140800A8
:0601B600FB15FF300800FC
:1001BC0083120313FA017308031D7A147708031DC5
:1001CC00FA147A0803192A29033A0319F5287A181C
:1001DC00F228F61F28292629F21F26292829720819
:1001EC008039FA00F21376088039F6137A0603196F
:1001FC0003297A0803192629282977087302031979
:10020C000A29031C1E2922297608720203191129B6
:10021C00031C1E2922297508710203191829031CB5
:10022C001E2922297408700203192A29031822296D
:10023C00FA08031928292629FA0803192629282936
:10024C000314080003100800031403150800080029
:10025C0083120313FD01F8017008031900347406AE
:10026C00FA00FA1BFD09FB01F41F3E29F409F40AFC
:10027C00F01F4229F009F00A70087404FA00FA1B06
:10028C0066297408F802F00D700DF80D7408F80763
:10029C00F00D0630FC00700DF80D74087018F802A3
:1002AC00701CF807F00DFC0B5129701CF8077B181B
:1002BC007429FD1F0034F009F00AF809F80A00341B
:1002CC00F41F7129F01B6E297008F800F0015F29EA
:1002DC00F001F00A0034F009FB0A4729F80A740807
:1002EC007802031D5F29F801F00AF01F5F29FF3423
:0202FC000800F8
:1002FE0083120313FB017308031D77080319D62914
:10030E0072087606FA007708F3077E30031C9329ED
:10031E00F3020318D9299629F302031CDC2972086B
:10032E00F8007108FC007008FD00F817F6170310AE
:10033E00F201F101F0011830A0007D1CB029740803
:10034E00F00775080318750FF10776080318760F76
:10035E00F207F20CF10CF00CF80CFC0CFD0C031077
:10036E00A00BA429F21BC029F80DF00DF10DF20D12
:10037E00F3037B1B701CD229F81FD229F00A031934
:10038E00F10A0319F20A031DD229F20CF10CF00C3A
:10039E00F30A0319D929FA1FF2130030DE290130AE
:1003AE005D20DE2902306420DE2904307920000031
:0203BE00080035
:1003C000831203172608F2007208F100F20A2708C8
:1003D000F000A70A700884000008F000710884008B
:1003E000700880007108840000080319F829E429C6
:0603F0002608F0000800E1
:1003F600A0017208031D102A7108F2007008F100AE
:10040600F001A0157208031D102A7108F200F1010F
:10041600A0112016720803191E2A2008F302031DD4
:10042600031C222A0310F21B262AF00DF10DF20DF1
:10043600F30B162A222A0130FC005D20292A0230FD
:0E044600FC007920292A0430FC0085200800E3
:10045400831203171A08A6001C08A7002330A8005B
:0404640098200800D4
:10046800831203179A019B01831603136F08F20086
:100478006F08F300720884000008203A031D4B2A15
:10048800831203171A081B04031D4B2A5A2A8312C6
:10049800031701309A0000309B007208840000089E
:1004A800F0007308840070088000F30A7208F100F5
:1004B800F20A710884000008003A031D3E2A8316D8
:0804C80003136F08F0000800A7
:1004D000831203139F01C0309F045B09F000700872
:1004E00083169F051F179F176F08F000F00D7010FF
:1004F000F00D7010F00D7010700883129F041F141F
:1005000090201F151F1D862A0000822A1F101E081A
:10051000F100F00183161E08F0040030F104080019
:1005200083120317A401A5011A08A0001B08A1004B
:100530001C08A2001D08A3002308FF3A031DAA2AD5
:100540002208FF3A031DAA2A2108FF3A031DAA2AFE
:100550002008FF3A031DB42A1E08A6004930A70050
:10056000E0210330F000A12C013083160313EF00CB
:1005700083120317A21FCB2A80302206F0007008D6
:10058000A20083160313EF0A831203171E088400C8
:100590002D3080009E0A0030F0002306031DDA2A69
:1005A00070082206031DDA2A70082106031DDA2AC4
:1005B0002008003A031DE32A1E08A6002130A700E8
:1005C000E021F001A12C2308FF3A031DF12A2208A3
:1005D000003A031DF12A2108003A031DF12A2008E0
:1005E000003A031DFD2A1E08A600E230A700E02104
:1005F000831603136F08F000A12C0030F4000030C4
:10060000F5000030F6007F30F70083120317200852
:10061000F0002108F1002208F2002308F300DE2098
:10062000013003180030F00070080319342B031751
:100630002008F0002108F1002208F2002308F3004E
:100640000030F4000030F5002030F6008230F70072
:100650007F2170080317A0007108A1007208A20092
:100660007308A300A503FD2A03170030F40000302F
:10067000F5002030F6008230F7002008F000210855
:10068000F1002208F2002308F300DE200130031CF1
:100690000030F000700803196A2B03172008F000DF
:1006A0002108F1002208F2002308F300CD30F40005
:1006B000CC30F5004C30F6007B30F7007F2170081D
:1006C0000317A0007108A1007208A2007308A3001C
:1006D000A50A342B0317FF302005F800FF30210551
:1006E000F9007F302205FA0000302305FB0078086E
:1006F000F4007908F5007A08F6007B08F700F40D9D
:10070000F50DF60DF70D741000302005F0000030E7
:100710002105F10000302205F200FF302305F3002F
:100720007008A0007108A1007208A2007308A3005D
:1007300074082004F00075082104F10076082204F2
:10074000F20077082304F3007008A0007108A100EC
:100750007208A2007308A3007F302302F000700823
:100760009F000130A3007008F4002008F000210869
:10077000F1002208F2002308F30074080319C72BC4
:10078000F00DF10DF20DF30D7010FF3EBE2B700851
:10079000A0007108A1007208A2007308A30023083A
:1007A000303EF0001E088400700880009E0A8030F1
:1007B0002506F0008030013A7002031CE82B8030DF
:1007C000063AF000803025067002031CE82BEF2B60
:1007D0001E0884002E3080009E0A0130A4000630DE
:1007E0009F001F08003A03194D2CA3012008F000B8
:1007F0002108F1002208F2002308F300F00DF10DAA
:10080000F20DF30D7010F00DF10DF20DF30D7010EF
:100810002008F00721080318210FF1072208031808
:10082000220FF20723080318230FF3077008A00014
:100830007108A1007208A2007308A3002008F0004C
:100840002108F1002208F2002308F300F00DF10D59
:10085000F20DF30D70107008A0007108A10072086D
:10086000A2007308A3002308303EF0001E08840095
:10087000700880009E0A2408003A031D4B2CA50333
:100880002508003A031D4B2C1E0884002E308000E2
:100890009E0A0130A4009F03F12BFF301E07840045
:1008A0000008303A031D562C9E034D2CFF301E07C6
:1008B000840000082E3A031D5E2C9E032508003A92
:1008C00003199D2C1E088400653080009E0A80302C
:1008D0002506F0008030003A70020318772C1E08BD
:1008E00084002D3080009E0A2508003CA5002508C4
:1008F0009F008030093AF00080302506700203180E
:100900008E2C0A30F4001F08F0002E213030F00742
:1009100003171E088400700880009E0A0A30F40045
:100920001F08F0002E217808F0003030F007031780
:100930001E088400700880009E0A1E088400800142
:04094000F0010800BA
:10094400831203137008F8007108F000F101F2013A
:10095400F301FB01FC019630F300FA017008F10089
:0C0964007808F000F801F201FB21080007
:10097000FF3083160313E800FF30E900FF30EA0080
:10098000FF3083129F01C0309F045B09F0007008A4
:0E09900083169F051F179F1783121F14080060
:10099E0089208A110A128000840AE60A0319E70ADE
:0809AE00F003031DCF2C08002B
:1009B600831203138719E82C071103300317A600C7
:1009C600FD30A7004D30A8009820871DF32C071591
:1009D60003300317A600FD30A7003430A800982086
:0C09E600003087190130F000F10108001A
:1009F200831203137408003A031D142D7508003A7C
:100A0200031D142D7608003A031D142D7708003AB1
:100A1200031D142DFF30F000FF30F1007F30F20093
:100A2200FF30F300AF2D8312031377080319A32DB0
:100A320073080319A62D720876068039FA00F21798
:100A4200F617A0017208F8007108FC007008FD009A
:100A52007408FD027508031C750FFC027608031C5E
:100A6200760FF802F801FC01FD01031C3F2D031073
:100A7200F20CF10CF00CF80C0130A0007708F30234
:100A8200031C492D7E302007F3070318A92D4E2D94
:100A92007E302007F307031CAC2D1830FA07FD0D3A
:100AA200FC0DF80DF00DF10DF20DA00D7408F00221
:100AB2007508031C750FF1027608031C760FF2020B
:100AC200760DA004201C672D7D14722D7408F0078A
:100AD20075080318750FF10776080318760AF207EE
:100AE2007D10FA031F307A05031D502D7B1B7D1CE0
:100AF200992D0310F00DF10DF20DA00D7408F00206
:100B02007508031C750FF1027608031C760FF202BA
:100B1200760D20040139FD070318FC0A0319F80AAF
:100B2200031D992DF80CFC0CFD0CF30A0319A92DD9
:100B3200FA1FF8137808F2007C08F1007D08F00033
:100B42000030AE2D0130DB20AE2D02305D20AE2D07
:0E0B520004306420AE2D083079200000080029
:100B600083160313861006100611861106128612CC
:100B700083128610061086120612861106110D20A9
:100B80000D200D20861506158614032086100D20D5
:100B90008614032086100D208614032086100D2055
:100BA00006118614032086100D208614032086105B
:100BB000861186168614032086100D2086120615CF
:100BC00086140320861006118614032086100D203B
:100BD00086140320861006158614032086100D2027
:100BE000061186140320861086160616861506152D
:0C0BF0008614032086100D206F140800EE
:100BFC008A151E208A11831203130711831686018E
:100C0C000F30850087018715B025B82401300317F4
:100C1C00AB001A200C300317AB001A20013003175D
:100C2C00A6000130A7004130A8009820023003171D
:100C3C00A6000130A7005C30A800982003300317F1
:100C4C00A600FD30A700D930A80098200430031767
:100C5C00A600FD30A700C830A80098201030FB007B
:100C6C003930FC000D30FD00FD0B3A2EFC0B3A2EFA
:100C7C00FB0B3A2E0000000001300317AB001A20CA
:100C8C000C300317AB001A20DB24700803179800F4
:100C9C00710899000C30AB001A208316EF01682202
:100CAC00A22470080317940071089500720896002E
:100CBC007308970010089A0011089B0012089C00FA
:100CCC0013089D00EB309E00902201308312031715
:100CDC00A6000130A700A030A80098200317140824
:100CEC00F0001508F1001608F2001708F3000030A8
:100CFC00F4000030F5004830F6008430F7007F2116
:100D0C000030F4000030F5002030F6008230F7009F
:100D1C007F210030F400C030F5007F30F6008830C1
:100D2C00F700F924700803179000710891007208FD
:100D3C00920073089300EB3083160313EF003422F8
:100D4C00700883120317A8000230A6000C30A7000D
:100D5C00982002300317A6001030A7006D30A800B1
:100D6C0098200630FB001330FC00AD30FD00FD0B6D
:100D7C00BD2EFC0BBD2EFB0BBD2E00000000003069
:100D8C00F4000030F5003030F6008330F700031724
:100D9C001008F0001108F1001208F2001308F3001B
:100DAC00DE20013003180030F00070080319E12E2A
:100DBC0007148710312F03171008F4001108F500E1
:100DCC001208F6001308F7000030F0000030F100B4
:100DDC003030F2008330F300DE2001300318003095
:100DEC00F00070080319162F0030F4000030F500E5
:100DFC004830F6008330F70003171008F000110894
:100E0C00F1001208F2001308F300DE200130031881
:100E1C000030F00070080319162F07108710312FBF
:100E2C0003171008F4001108F5001208F600130857
:100E3C00F7000030F0000030F1004830F200833051
:100E4C00F300DE20013003180030F00070080319A5
:100E5C00312F07108714F1018719F10A003003179D
:100E6C001906031D3B2F710818060319702F033048
:100E7C009A0000309B00FD309C00FF309D002A2220
:100E8C000630FB001330FC00AD30FD00FD0B4C2F89
:100E9C00FC0B4C2FFB0B4C2F0000000087195F2F15
:100EAC00071103300317A600FD30A700AD30A800D2
:100EBC009820871D6A2F071503300317A600FD30F5
:100ECC00A700BB30A8009820003087190130031709
:080EDC0098009901502E712FBE
:10103C00213084004C3083120313F000753083167A
:10104C00E6000730E7008A11CF248A15A03084000F
:10105C00283083120313F000C1308316E6000730EA
:10106C00E7008A11CF248A156D3084000230831278
:10107C000313F000E9308316E6000730E7008A110D
:10108C00CF248A15C83084001E3083120313F0005D
:10109C0000308316E6000830E7008A11CF248A1549
:0210AC0008003A
:040EEA00303400346C
:100EEE002034203420342034203420342034203454
:100EFE002034203420342034203420342034203444
:020F0E000034AD
:100F10004734413453342034443445345434453414
:0A0F200043345434203420340034EC
:100F2A0041346D346234693465346E347434003457
:080F3A004E3461344E340034E2
:100F42004E344F3420344734413453342034443403
:0C0F5200453454344534433454340034E6
:020F5E000F344E
:100F60004D346F346E34693474346F347234693490
:100F70006E346734203453347934733474342E34FB
:020F800000343B
:100F8200543465346D34703465347234613474347D
:0A0F92007534723465343A340034CB
:100F9C004E344F34203447344134533420344434A9
:0C0FAC004534543445344334543400348C
:100FB800473441345334203444344534543445346C
:0A0FC8004334543420342034003444
:040FD2004334003470
:10100000443465346E346E34693473342034263499
:10101000203441346C346934733473346F346E3437
:0210200000349A
:1010220041347534743468346F34723473343A34FE
:02103200003488
:0810340049344E344634003407
:02400E004A2F37
:00000001FF
